{
  "contractName": "Marketplace",
  "abi": [
    {
      "inputs": [],
      "stateMutability": "nonpayable",
      "type": "constructor"
    },
    {
      "inputs": [],
      "name": "CourseHasOwner",
      "type": "error"
    },
    {
      "inputs": [],
      "name": "CourseIsNotCreated",
      "type": "error"
    },
    {
      "inputs": [],
      "name": "InvalidState",
      "type": "error"
    },
    {
      "inputs": [],
      "name": "OnlyOwner",
      "type": "error"
    },
    {
      "inputs": [],
      "name": "SenderIsNotCourseOwner",
      "type": "error"
    },
    {
      "inputs": [],
      "name": "isStopped",
      "outputs": [
        {
          "internalType": "bool",
          "name": "",
          "type": "bool"
        }
      ],
      "stateMutability": "view",
      "type": "function",
      "constant": true
    },
    {
      "stateMutability": "payable",
      "type": "receive",
      "payable": true
    },
    {
      "inputs": [
        {
          "internalType": "uint256",
          "name": "amount",
          "type": "uint256"
        }
      ],
      "name": "widthdraw",
      "outputs": [],
      "stateMutability": "nonpayable",
      "type": "function"
    },
    {
      "inputs": [],
      "name": "emergencyWidthdraw",
      "outputs": [],
      "stateMutability": "nonpayable",
      "type": "function"
    },
    {
      "inputs": [],
      "name": "_selfDestruct",
      "outputs": [],
      "stateMutability": "nonpayable",
      "type": "function"
    },
    {
      "inputs": [],
      "name": "stopContract",
      "outputs": [],
      "stateMutability": "nonpayable",
      "type": "function"
    },
    {
      "inputs": [],
      "name": "resumeContract",
      "outputs": [],
      "stateMutability": "nonpayable",
      "type": "function"
    },
    {
      "inputs": [
        {
          "internalType": "bytes16",
          "name": "courseId",
          "type": "bytes16"
        },
        {
          "internalType": "bytes32",
          "name": "proof",
          "type": "bytes32"
        }
      ],
      "name": "purchaseCourse",
      "outputs": [],
      "stateMutability": "payable",
      "type": "function",
      "payable": true
    },
    {
      "inputs": [
        {
          "internalType": "bytes32",
          "name": "courseHash",
          "type": "bytes32"
        }
      ],
      "name": "repurchasedCourse",
      "outputs": [],
      "stateMutability": "payable",
      "type": "function",
      "payable": true
    },
    {
      "inputs": [
        {
          "internalType": "bytes32",
          "name": "courseHash",
          "type": "bytes32"
        }
      ],
      "name": "activateCourse",
      "outputs": [],
      "stateMutability": "nonpayable",
      "type": "function"
    },
    {
      "inputs": [
        {
          "internalType": "bytes32",
          "name": "courseHash",
          "type": "bytes32"
        }
      ],
      "name": "deactivateCourse",
      "outputs": [],
      "stateMutability": "nonpayable",
      "type": "function"
    },
    {
      "inputs": [
        {
          "internalType": "address",
          "name": "newOwner",
          "type": "address"
        }
      ],
      "name": "transferOwnership",
      "outputs": [],
      "stateMutability": "nonpayable",
      "type": "function"
    },
    {
      "inputs": [],
      "name": "getCourseCount",
      "outputs": [
        {
          "internalType": "uint256",
          "name": "",
          "type": "uint256"
        }
      ],
      "stateMutability": "view",
      "type": "function",
      "constant": true
    },
    {
      "inputs": [
        {
          "internalType": "uint256",
          "name": "index",
          "type": "uint256"
        }
      ],
      "name": "getCourseHashAtIndex",
      "outputs": [
        {
          "internalType": "bytes32",
          "name": "",
          "type": "bytes32"
        }
      ],
      "stateMutability": "view",
      "type": "function",
      "constant": true
    },
    {
      "inputs": [
        {
          "internalType": "bytes32",
          "name": "courseHash",
          "type": "bytes32"
        }
      ],
      "name": "getCourseByHash",
      "outputs": [
        {
          "components": [
            {
              "internalType": "uint256",
              "name": "id",
              "type": "uint256"
            },
            {
              "internalType": "uint256",
              "name": "price",
              "type": "uint256"
            },
            {
              "internalType": "bytes32",
              "name": "proof",
              "type": "bytes32"
            },
            {
              "internalType": "address",
              "name": "owner",
              "type": "address"
            },
            {
              "internalType": "enum Marketplace.State",
              "name": "state",
              "type": "uint8"
            }
          ],
          "internalType": "struct Marketplace.Course",
          "name": "",
          "type": "tuple"
        }
      ],
      "stateMutability": "view",
      "type": "function",
      "constant": true
    },
    {
      "inputs": [],
      "name": "getContractOwner",
      "outputs": [
        {
          "internalType": "address",
          "name": "",
          "type": "address"
        }
      ],
      "stateMutability": "view",
      "type": "function",
      "constant": true
    }
  ],
  "bytecode": "0x608060405260008060006101000a81548160ff02191690831515021790555034801561002a57600080fd5b5061003a3361003f60201b60201c565b610083565b80600460006101000a81548173ffffffffffffffffffffffffffffffffffffffff021916908373ffffffffffffffffffffffffffffffffffffffff16021790555050565b611783806100926000396000f3fe6080604052600436106100ec5760003560e01c806396cfda061161008a578063d76821cb11610059578063d76821cb146102a1578063e0da260c146102bd578063f2fde38b146102e6578063f67e1ed41461030f576100f3565b806396cfda0614610231578063c2a9e7fd1461025c578063c4bc5da514610273578063c8d9a6fc1461028a576100f3565b8063442890d5116100c6578063442890d51461016357806362e4e6ac1461018e5780636d11290b146101cb578063935d7e6d14610208576100f3565b806312253a6c146100f8578063392625721461010f5780633f683b6a14610138576100f3565b366100f357005b600080fd5b34801561010457600080fd5b5061010d61032b565b005b34801561011b57600080fd5b50610136600480360381019061013191906111f0565b6103b3565b005b34801561014457600080fd5b5061014d61052d565b60405161015a9190611238565b60405180910390f35b34801561016f57600080fd5b5061017861053e565b6040516101859190611294565b60405180910390f35b34801561019a57600080fd5b506101b560048036038101906101b091906111f0565b610568565b6040516101c291906113c5565b60405180910390f35b3480156101d757600080fd5b506101f260048036038101906101ed919061140c565b610644565b6040516101ff9190611448565b60405180910390f35b34801561021457600080fd5b5061022f600480360381019061022a91906111f0565b610661565b005b34801561023d57600080fd5b506102466108ba565b6040516102539190611472565b60405180910390f35b34801561026857600080fd5b506102716108c4565b005b34801561027f57600080fd5b50610288610a18565b005b34801561029657600080fd5b5061029f610aa0565b005b6102bb60048036038101906102b691906114e5565b610b5e565b005b3480156102c957600080fd5b506102e460048036038101906102df919061140c565b610d17565b005b3480156102f257600080fd5b5061030d60048036038101906103089190611551565b610e6d565b005b610329600480360381019061032491906111f0565b610ee5565b005b61033361053e565b73ffffffffffffffffffffffffffffffffffffffff163373ffffffffffffffffffffffffffffffffffffffff1614610397576040517f5fc483c500000000000000000000000000000000000000000000000000000000815260040160405180910390fd5b60016000806101000a81548160ff021916908315150217905550565b60008054906101000a900460ff16156103cb57600080fd5b6103d361053e565b73ffffffffffffffffffffffffffffffffffffffff163373ffffffffffffffffffffffffffffffffffffffff1614610437576040517f5fc483c500000000000000000000000000000000000000000000000000000000815260040160405180910390fd5b6104408161103a565b610476576040517f4db0c48300000000000000000000000000000000000000000000000000000000815260040160405180910390fd5b6000600260008381526020019081526020016000209050600060028111156104a1576104a06112e6565b5b8160030160149054906101000a900460ff1660028111156104c5576104c46112e6565b5b146104fc576040517fbaf3f0f700000000000000000000000000000000000000000000000000000000815260040160405180910390fd5b60018160030160146101000a81548160ff02191690836002811115610524576105236112e6565b5b02179055505050565b60008054906101000a900460ff1681565b6000600460009054906101000a900473ffffffffffffffffffffffffffffffffffffffff16905090565b61057061115b565b600260008381526020019081526020016000206040518060a00160405290816000820154815260200160018201548152602001600282015481526020016003820160009054906101000a900473ffffffffffffffffffffffffffffffffffffffff1673ffffffffffffffffffffffffffffffffffffffff1673ffffffffffffffffffffffffffffffffffffffff1681526020016003820160149054906101000a900460ff166002811115610627576106266112e6565b5b6002811115610639576106386112e6565b5b815250509050919050565b600060016000838152602001908152602001600020549050919050565b60008054906101000a900460ff161561067957600080fd5b61068161053e565b73ffffffffffffffffffffffffffffffffffffffff163373ffffffffffffffffffffffffffffffffffffffff16146106e5576040517f5fc483c500000000000000000000000000000000000000000000000000000000815260040160405180910390fd5b6106ee8161103a565b610724576040517f4db0c48300000000000000000000000000000000000000000000000000000000815260040160405180910390fd5b60006002600083815260200190815260200160002090506000600281111561074f5761074e6112e6565b5b8160030160149054906101000a900460ff166002811115610773576107726112e6565b5b146107aa576040517fbaf3f0f700000000000000000000000000000000000000000000000000000000815260040160405180910390fd5b60008160030160009054906101000a900473ffffffffffffffffffffffffffffffffffffffff1673ffffffffffffffffffffffffffffffffffffffff1682600101546040516107f8906115af565b60006040518083038185875af1925050503d8060008114610835576040519150601f19603f3d011682016040523d82523d6000602084013e61083a565b606091505b505090508061087e576040517f08c379a000000000000000000000000000000000000000000000000000000000815260040161087590611621565b60405180910390fd5b60028260030160146101000a81548160ff021916908360028111156108a6576108a56112e6565b5b021790555060008260010181905550505050565b6000600354905090565b60008054906101000a900460ff166108db57600080fd5b6108e361053e565b73ffffffffffffffffffffffffffffffffffffffff163373ffffffffffffffffffffffffffffffffffffffff1614610947576040517f5fc483c500000000000000000000000000000000000000000000000000000000815260040160405180910390fd5b6000600460009054906101000a900473ffffffffffffffffffffffffffffffffffffffff1673ffffffffffffffffffffffffffffffffffffffff164760405161098f906115af565b60006040518083038185875af1925050503d80600081146109cc576040519150601f19603f3d011682016040523d82523d6000602084013e6109d1565b606091505b5050905080610a15576040517f08c379a0000000000000000000000000000000000000000000000000000000008152600401610a0c90611621565b60405180910390fd5b50565b610a2061053e565b73ffffffffffffffffffffffffffffffffffffffff163373ffffffffffffffffffffffffffffffffffffffff1614610a84576040517f5fc483c500000000000000000000000000000000000000000000000000000000815260040160405180910390fd5b60008060006101000a81548160ff021916908315150217905550565b60008054906101000a900460ff16610ab757600080fd5b610abf61053e565b73ffffffffffffffffffffffffffffffffffffffff163373ffffffffffffffffffffffffffffffffffffffff1614610b23576040517f5fc483c500000000000000000000000000000000000000000000000000000000815260040160405180910390fd5b600460009054906101000a900473ffffffffffffffffffffffffffffffffffffffff1673ffffffffffffffffffffffffffffffffffffffff16ff5b60008054906101000a900460ff1615610b7657600080fd5b60008233604051602001610b8b9291906116aa565b604051602081830303815290604052805190602001209050610bac816110a9565b15610be3576040517fb0fc2d9700000000000000000000000000000000000000000000000000000000815260040160405180910390fd5b600060036000815480929190610bf890611705565b9190505590508160016000838152602001908152602001600020819055506040518060a001604052808281526020013481526020018481526020013373ffffffffffffffffffffffffffffffffffffffff16815260200160006002811115610c6357610c626112e6565b5b8152506002600084815260200190815260200160002060008201518160000155602082015181600101556040820151816002015560608201518160030160006101000a81548173ffffffffffffffffffffffffffffffffffffffff021916908373ffffffffffffffffffffffffffffffffffffffff16021790555060808201518160030160146101000a81548160ff02191690836002811115610d0957610d086112e6565b5b021790555090505050505050565b60008054906101000a900460ff1615610d2f57600080fd5b610d3761053e565b73ffffffffffffffffffffffffffffffffffffffff163373ffffffffffffffffffffffffffffffffffffffff1614610d9b576040517f5fc483c500000000000000000000000000000000000000000000000000000000815260040160405180910390fd5b6000600460009054906101000a900473ffffffffffffffffffffffffffffffffffffffff1673ffffffffffffffffffffffffffffffffffffffff1682604051610de3906115af565b60006040518083038185875af1925050503d8060008114610e20576040519150601f19603f3d011682016040523d82523d6000602084013e610e25565b606091505b5050905080610e69576040517f08c379a0000000000000000000000000000000000000000000000000000000008152600401610e6090611621565b60405180910390fd5b5050565b610e7561053e565b73ffffffffffffffffffffffffffffffffffffffff163373ffffffffffffffffffffffffffffffffffffffff1614610ed9576040517f5fc483c500000000000000000000000000000000000000000000000000000000815260040160405180910390fd5b610ee281611117565b50565b60008054906101000a900460ff1615610efd57600080fd5b610f068161103a565b610f3c576040517f4db0c48300000000000000000000000000000000000000000000000000000000815260040160405180910390fd5b610f45816110a9565b610f7b576040517fcce31cc400000000000000000000000000000000000000000000000000000000815260040160405180910390fd5b6000600260008381526020019081526020016000209050600280811115610fa557610fa46112e6565b5b8160030160149054906101000a900460ff166002811115610fc957610fc86112e6565b5b14611000576040517fbaf3f0f700000000000000000000000000000000000000000000000000000000815260040160405180910390fd5b60008160030160146101000a81548160ff02191690836002811115611028576110276112e6565b5b02179055503481600101819055505050565b60008073ffffffffffffffffffffffffffffffffffffffff166002600084815260200190815260200160002060030160009054906101000a900473ffffffffffffffffffffffffffffffffffffffff1673ffffffffffffffffffffffffffffffffffffffff1614159050919050565b60003373ffffffffffffffffffffffffffffffffffffffff166002600084815260200190815260200160002060030160009054906101000a900473ffffffffffffffffffffffffffffffffffffffff1673ffffffffffffffffffffffffffffffffffffffff16149050919050565b80600460006101000a81548173ffffffffffffffffffffffffffffffffffffffff021916908373ffffffffffffffffffffffffffffffffffffffff16021790555050565b6040518060a00160405280600081526020016000815260200160008019168152602001600073ffffffffffffffffffffffffffffffffffffffff168152602001600060028111156111af576111ae6112e6565b5b81525090565b600080fd5b6000819050919050565b6111cd816111ba565b81146111d857600080fd5b50565b6000813590506111ea816111c4565b92915050565b600060208284031215611206576112056111b5565b5b6000611214848285016111db565b91505092915050565b60008115159050919050565b6112328161121d565b82525050565b600060208201905061124d6000830184611229565b92915050565b600073ffffffffffffffffffffffffffffffffffffffff82169050919050565b600061127e82611253565b9050919050565b61128e81611273565b82525050565b60006020820190506112a96000830184611285565b92915050565b6000819050919050565b6112c2816112af565b82525050565b6112d1816111ba565b82525050565b6112e081611273565b82525050565b7f4e487b7100000000000000000000000000000000000000000000000000000000600052602160045260246000fd5b60038110611326576113256112e6565b5b50565b600081905061133782611315565b919050565b600061134782611329565b9050919050565b6113578161133c565b82525050565b60a08201600082015161137360008501826112b9565b50602082015161138660208501826112b9565b50604082015161139960408501826112c8565b5060608201516113ac60608501826112d7565b5060808201516113bf608085018261134e565b50505050565b600060a0820190506113da600083018461135d565b92915050565b6113e9816112af565b81146113f457600080fd5b50565b600081359050611406816113e0565b92915050565b600060208284031215611422576114216111b5565b5b6000611430848285016113f7565b91505092915050565b611442816111ba565b82525050565b600060208201905061145d6000830184611439565b92915050565b61146c816112af565b82525050565b60006020820190506114876000830184611463565b92915050565b60007fffffffffffffffffffffffffffffffff0000000000000000000000000000000082169050919050565b6114c28161148d565b81146114cd57600080fd5b50565b6000813590506114df816114b9565b92915050565b600080604083850312156114fc576114fb6111b5565b5b600061150a858286016114d0565b925050602061151b858286016111db565b9150509250929050565b61152e81611273565b811461153957600080fd5b50565b60008135905061154b81611525565b92915050565b600060208284031215611567576115666111b5565b5b60006115758482850161153c565b91505092915050565b600081905092915050565b50565b600061159960008361157e565b91506115a482611589565b600082019050919050565b60006115ba8261158c565b9150819050919050565b600082825260208201905092915050565b7f5472616e73666572206661696c65642100000000000000000000000000000000600082015250565b600061160b6010836115c4565b9150611616826115d5565b602082019050919050565b6000602082019050818103600083015261163a816115fe565b9050919050565b6000819050919050565b61165c6116578261148d565b611641565b82525050565b60008160601b9050919050565b600061167a82611662565b9050919050565b600061168c8261166f565b9050919050565b6116a461169f82611273565b611681565b82525050565b60006116b6828561164b565b6010820191506116c68284611693565b6014820191508190509392505050565b7f4e487b7100000000000000000000000000000000000000000000000000000000600052601160045260246000fd5b6000611710826112af565b91507fffffffffffffffffffffffffffffffffffffffffffffffffffffffffffffffff8203611742576117416116d6565b5b60018201905091905056fea2646970667358221220c46ac9e0ab7a4ede5822b9110c9a20393ed398ec3f30b8b0d28972ca6800140664736f6c63430008100033",
  "immutableReferences": {},
  "source": "// SPDX-License-Identifier: MIT\npragma solidity >=0.4.22 <0.9.0;\n\ncontract Marketplace {\n    // course state\n    enum State {\n        Purchased,\n        Activated,\n        Deactivated\n    }\n\n    //structure for each course\n    struct Course {\n        //meaning of the 32 byte is for the storage, that each slot takes 32 bytes\n        uint256 id; // 32 byte\n        uint256 price; // 32 byte\n        bytes32 proof; //unic string contructed by the user, will identify the user 32 byte\n        address owner; // user owner of the course 20 byte\n        State state; // 1 byte\n    }\n\n    bool public isStopped = false;\n\n    // mapping of courseID to courseHash\n    mapping(uint256 => bytes32) private ownedCourseHash;\n    // mapping of courseHash to Course data\n    mapping(bytes32 => Course) private ownedCourses;\n\n    // number of all courses + id of courses\n    uint256 private totalOwnedCourses;\n\n    //admin of courses\n    address payable private owner;\n\n    // this runs when the contract is deployed setting the owner of the contract\n    constructor() {\n        setContractOwner(msg.sender);\n    }\n\n    // with three \"/\" we create the error msg\n\n    /// Course has already a Owner!\n    error CourseHasOwner();\n\n    /// Only owner has access!\n    error OnlyOwner();\n\n    ///Course has invalid state!\n    error InvalidState();\n\n    ///Course is does not exist!\n    error CourseIsNotCreated();\n\n    ///Sender is not course owner!\n    error SenderIsNotCourseOwner();\n\n    // a modifier, we can use it in the parameter of the function like we do in transferOwnership()\n    modifier onlyOwner() {\n        if (msg.sender != getContractOwner()) {\n            revert OnlyOwner();\n        }\n        _;\n    }\n\n    modifier onlyWhenNotStopped() {\n        require(!isStopped);\n        _;\n    }\n\n    modifier onlyWhenStopped() {\n        require(isStopped);\n        _;\n    }\n\n    // this function allow us to send amounts to other contracts from metamask\n    receive() external payable {}\n\n    function widthdraw(uint256 amount) external onlyWhenNotStopped onlyOwner {\n        // transfer the passed amount to the owner of contract\n        (bool success, ) = owner.call{value: amount}(\"\");\n        require(success, \"Transfer failed!\");\n    }\n\n    function emergencyWidthdraw() external onlyWhenStopped onlyOwner {\n        // transfer the current balance of smart contract to the owner of contract\n        (bool success, ) = owner.call{value: address(this).balance}(\"\");\n        require(success, \"Transfer failed!\");\n    }\n\n    //arase contract from blockChain and will tranfer all the balance of the contract to owner (or who ever is specified)\n    function _selfDestruct() external onlyWhenStopped onlyOwner {\n        selfdestruct(owner);\n    }\n\n    function stopContract() external onlyOwner {\n        isStopped = true;\n    }\n\n    function resumeContract() external onlyOwner {\n        isStopped = false;\n    }\n\n    function purchaseCourse(bytes16 courseId, bytes32 proof)\n        external\n        payable\n        onlyWhenNotStopped\n    {\n        //this is creating a hashed string with the course id + msg.sender(account buying the course) and it works as a identifier\n        bytes32 courseHash = keccak256(abi.encodePacked(courseId, msg.sender));\n\n        //this is made to make sure a user buy only one time the course, when user buy we use the courseId + address of user to form a hashed string, if the user trys to buy same course again it will create same hash again\n        if (hasCourseOwnership(courseHash)) {\n            revert CourseHasOwner();\n        }\n\n        uint256 id = totalOwnedCourses++;\n\n        ownedCourseHash[id] = courseHash;\n        //we use the courseHash as key of each element\n        ownedCourses[courseHash] = Course({\n            id: id,\n            price: msg.value,\n            proof: proof,\n            owner: msg.sender,\n            state: State.Purchased\n        });\n    }\n\n    // repurchase same course after deactivating\n    function repurchasedCourse(bytes32 courseHash)\n        external\n        payable\n        onlyWhenNotStopped\n    {\n        if (!isCourseCreated(courseHash)) {\n            revert CourseIsNotCreated();\n        }\n\n        if (!hasCourseOwnership(courseHash)) {\n            revert SenderIsNotCourseOwner();\n        }\n\n        //how to access courses in storage\n        Course storage course = ownedCourses[courseHash];\n\n        if (course.state != State.Deactivated) {\n            revert InvalidState();\n        }\n\n        course.state = State.Purchased;\n        course.price = msg.value;\n    }\n\n    // activate the course after you buy it\n    function activateCourse(bytes32 courseHash)\n        external\n        onlyWhenNotStopped\n        onlyOwner\n    {\n        if (!isCourseCreated(courseHash)) {\n            revert CourseIsNotCreated();\n        }\n\n        Course storage course = ownedCourses[courseHash];\n\n        if (course.state != State.Purchased) {\n            revert InvalidState();\n        }\n\n        course.state = State.Activated;\n    }\n\n    // deactivate the course\n    function deactivateCourse(bytes32 courseHash)\n        external\n        onlyWhenNotStopped\n        onlyOwner\n    {\n        if (!isCourseCreated(courseHash)) {\n            revert CourseIsNotCreated();\n        }\n\n        Course storage course = ownedCourses[courseHash];\n\n        if (course.state != State.Purchased) {\n            revert InvalidState();\n        }\n\n        // return course payed value to the buyer of the course\n        (bool success, ) = course.owner.call{value: course.price}(\"\");\n        require(success, \"Transfer failed!\");\n\n        course.state = State.Deactivated;\n        course.price = 0;\n    }\n\n    //transfer ownership of contract to other address,only the owner of the contract has that power\n    function transferOwnership(address newOwner) external onlyOwner {\n        setContractOwner(newOwner);\n    }\n\n    //we use this function in manageCoursesHandler\n    function getCourseCount() external view returns (uint256) {\n        return totalOwnedCourses;\n    }\n\n    //we use this function in manageCoursesHandler\n    function getCourseHashAtIndex(uint256 index)\n        external\n        view\n        returns (bytes32)\n    {\n        return ownedCourseHash[index];\n    }\n\n    //this function is used to find all the courses a account own, we use it in ownedCoursesHandler.js && manageCoursesHandler\n    function getCourseByHash(bytes32 courseHash)\n        external\n        view\n        returns (Course memory)\n    {\n        return ownedCourses[courseHash];\n    }\n\n    //return contract owner\n    function getContractOwner() public view returns (address) {\n        return owner;\n    }\n\n    //set contract owner\n    function setContractOwner(address newOwner) private {\n        owner = payable(newOwner);\n    }\n\n    function isCourseCreated(bytes32 courseHash) private view returns (bool) {\n        return\n            ownedCourses[courseHash].owner !=\n            0x0000000000000000000000000000000000000000;\n    }\n\n    //to check if the course is purchased by someone when confronting ownership\n    function hasCourseOwnership(bytes32 courseHash)\n        private\n        view\n        returns (bool)\n    {\n        return ownedCourses[courseHash].owner == msg.sender;\n    }\n}\n",
  "sourcePath": "/Users/didierlanadankan/market-place/contracts/CourseMarketplace.sol",
  "compiler": {
    "name": "solc",
    "version": "0.8.16+commit.07a7930e.Emscripten.clang"
  },
  "schemaVersion": "3.4.9",
  "updatedAt": "2022-09-20T23:11:24.585Z",
  "networkType": "ethereum",
  "devdoc": {
    "kind": "dev",
    "methods": {},
    "version": 1
  },
  "userdoc": {
    "errors": {
      "CourseHasOwner()": [
        {
          "notice": "Course has already a Owner!"
        }
      ],
      "CourseIsNotCreated()": [
        {
          "notice": "Course is does not exist!"
        }
      ],
      "InvalidState()": [
        {
          "notice": "Course has invalid state!"
        }
      ],
      "OnlyOwner()": [
        {
          "notice": "Only owner has access!"
        }
      ],
      "SenderIsNotCourseOwner()": [
        {
          "notice": "Sender is not course owner!"
        }
      ]
    },
    "kind": "user",
    "methods": {},
    "version": 1
  }
}