{
  "contractName": "Marketplace",
  "abi": [
    {
      "inputs": [],
      "stateMutability": "nonpayable",
      "type": "constructor"
    },
    {
      "inputs": [],
      "name": "CourseHasOwner",
      "type": "error"
    },
    {
      "inputs": [],
      "name": "CourseIsNotCreated",
      "type": "error"
    },
    {
      "inputs": [],
      "name": "InvalidState",
      "type": "error"
    },
    {
      "inputs": [],
      "name": "OnlyOwner",
      "type": "error"
    },
    {
      "inputs": [],
      "name": "SenderIsNotCourseOwner",
      "type": "error"
    },
    {
      "inputs": [
        {
          "internalType": "bytes16",
          "name": "courseId",
          "type": "bytes16"
        },
        {
          "internalType": "bytes32",
          "name": "proof",
          "type": "bytes32"
        }
      ],
      "name": "purchaseCourse",
      "outputs": [],
      "stateMutability": "payable",
      "type": "function",
      "payable": true
    },
    {
      "inputs": [
        {
          "internalType": "bytes32",
          "name": "courseHash",
          "type": "bytes32"
        }
      ],
      "name": "repurchasedCourse",
      "outputs": [],
      "stateMutability": "payable",
      "type": "function",
      "payable": true
    },
    {
      "inputs": [
        {
          "internalType": "bytes32",
          "name": "courseHash",
          "type": "bytes32"
        }
      ],
      "name": "activateCourse",
      "outputs": [],
      "stateMutability": "nonpayable",
      "type": "function"
    },
    {
      "inputs": [
        {
          "internalType": "bytes32",
          "name": "courseHash",
          "type": "bytes32"
        }
      ],
      "name": "deactivateCourse",
      "outputs": [],
      "stateMutability": "nonpayable",
      "type": "function"
    },
    {
      "inputs": [
        {
          "internalType": "address",
          "name": "newOwner",
          "type": "address"
        }
      ],
      "name": "transferOwnership",
      "outputs": [],
      "stateMutability": "nonpayable",
      "type": "function"
    },
    {
      "inputs": [],
      "name": "getCourseCount",
      "outputs": [
        {
          "internalType": "uint256",
          "name": "",
          "type": "uint256"
        }
      ],
      "stateMutability": "view",
      "type": "function",
      "constant": true
    },
    {
      "inputs": [
        {
          "internalType": "uint256",
          "name": "index",
          "type": "uint256"
        }
      ],
      "name": "getCourseHashAtIndex",
      "outputs": [
        {
          "internalType": "bytes32",
          "name": "",
          "type": "bytes32"
        }
      ],
      "stateMutability": "view",
      "type": "function",
      "constant": true
    },
    {
      "inputs": [
        {
          "internalType": "bytes32",
          "name": "courseHash",
          "type": "bytes32"
        }
      ],
      "name": "getCourseByHash",
      "outputs": [
        {
          "components": [
            {
              "internalType": "uint256",
              "name": "id",
              "type": "uint256"
            },
            {
              "internalType": "uint256",
              "name": "price",
              "type": "uint256"
            },
            {
              "internalType": "bytes32",
              "name": "proof",
              "type": "bytes32"
            },
            {
              "internalType": "address",
              "name": "owner",
              "type": "address"
            },
            {
              "internalType": "enum Marketplace.State",
              "name": "state",
              "type": "uint8"
            }
          ],
          "internalType": "struct Marketplace.Course",
          "name": "",
          "type": "tuple"
        }
      ],
      "stateMutability": "view",
      "type": "function",
      "constant": true
    },
    {
      "inputs": [],
      "name": "getContractOwner",
      "outputs": [
        {
          "internalType": "address",
          "name": "",
          "type": "address"
        }
      ],
      "stateMutability": "view",
      "type": "function",
      "constant": true
    }
  ],
  "bytecode": "0x608060405234801561001057600080fd5b506100203361002560201b60201c565b610069565b80600360006101000a81548173ffffffffffffffffffffffffffffffffffffffff021916908373ffffffffffffffffffffffffffffffffffffffff16021790555050565b611146806100786000396000f3fe6080604052600436106100865760003560e01c8063935d7e6d11610059578063935d7e6d1461015957806396cfda0614610182578063d76821cb146101ad578063f2fde38b146101c9578063f67e1ed4146101f257610086565b8063392625721461008b578063442890d5146100b457806362e4e6ac146100df5780636d11290b1461011c575b600080fd5b34801561009757600080fd5b506100b260048036038101906100ad9190610be9565b61020e565b005b3480156100c057600080fd5b506100c9610370565b6040516100d69190610c57565b60405180910390f35b3480156100eb57600080fd5b5061010660048036038101906101019190610be9565b61039a565b6040516101139190610d88565b60405180910390f35b34801561012857600080fd5b50610143600480360381019061013e9190610dcf565b610476565b6040516101509190610e0b565b60405180910390f35b34801561016557600080fd5b50610180600480360381019061017b9190610be9565b610492565b005b34801561018e57600080fd5b506101976106d3565b6040516101a49190610e35565b60405180910390f35b6101c760048036038101906101c29190610ea8565b6106dd565b005b3480156101d557600080fd5b506101f060048036038101906101eb9190610f14565b61087d565b005b61020c60048036038101906102079190610be9565b6108f5565b005b610216610370565b73ffffffffffffffffffffffffffffffffffffffff163373ffffffffffffffffffffffffffffffffffffffff161461027a576040517f5fc483c500000000000000000000000000000000000000000000000000000000815260040160405180910390fd5b61028381610a33565b6102b9576040517f4db0c48300000000000000000000000000000000000000000000000000000000815260040160405180910390fd5b6000600160008381526020019081526020016000209050600060048111156102e4576102e3610ca9565b5b8160030160149054906101000a900460ff16600481111561030857610307610ca9565b5b1461033f576040517fbaf3f0f700000000000000000000000000000000000000000000000000000000815260040160405180910390fd5b60018160030160146101000a81548160ff0219169083600481111561036757610366610ca9565b5b02179055505050565b6000600360009054906101000a900473ffffffffffffffffffffffffffffffffffffffff16905090565b6103a2610b54565b600160008381526020019081526020016000206040518060a00160405290816000820154815260200160018201548152602001600282015481526020016003820160009054906101000a900473ffffffffffffffffffffffffffffffffffffffff1673ffffffffffffffffffffffffffffffffffffffff1673ffffffffffffffffffffffffffffffffffffffff1681526020016003820160149054906101000a900460ff16600481111561045957610458610ca9565b5b600481111561046b5761046a610ca9565b5b815250509050919050565b6000806000838152602001908152602001600020549050919050565b61049a610370565b73ffffffffffffffffffffffffffffffffffffffff163373ffffffffffffffffffffffffffffffffffffffff16146104fe576040517f5fc483c500000000000000000000000000000000000000000000000000000000815260040160405180910390fd5b61050781610a33565b61053d576040517f4db0c48300000000000000000000000000000000000000000000000000000000815260040160405180910390fd5b60006001600083815260200190815260200160002090506000600481111561056857610567610ca9565b5b8160030160149054906101000a900460ff16600481111561058c5761058b610ca9565b5b146105c3576040517fbaf3f0f700000000000000000000000000000000000000000000000000000000815260040160405180910390fd5b60008160030160009054906101000a900473ffffffffffffffffffffffffffffffffffffffff1673ffffffffffffffffffffffffffffffffffffffff16826001015460405161061190610f72565b60006040518083038185875af1925050503d806000811461064e576040519150601f19603f3d011682016040523d82523d6000602084013e610653565b606091505b5050905080610697576040517f08c379a000000000000000000000000000000000000000000000000000000000815260040161068e90610fe4565b60405180910390fd5b60038260030160146101000a81548160ff021916908360048111156106bf576106be610ca9565b5b021790555060008260010181905550505050565b6000600254905090565b600082336040516020016106f292919061106d565b60405160208183030381529060405280519060200120905061071381610aa2565b1561074a576040517fb0fc2d9700000000000000000000000000000000000000000000000000000000815260040160405180910390fd5b60006002600081548092919061075f906110c8565b91905055905081600080838152602001908152602001600020819055506040518060a001604052808281526020013481526020018481526020013373ffffffffffffffffffffffffffffffffffffffff168152602001600060048111156107c9576107c8610ca9565b5b8152506001600084815260200190815260200160002060008201518160000155602082015181600101556040820151816002015560608201518160030160006101000a81548173ffffffffffffffffffffffffffffffffffffffff021916908373ffffffffffffffffffffffffffffffffffffffff16021790555060808201518160030160146101000a81548160ff0219169083600481111561086f5761086e610ca9565b5b021790555090505050505050565b610885610370565b73ffffffffffffffffffffffffffffffffffffffff163373ffffffffffffffffffffffffffffffffffffffff16146108e9576040517f5fc483c500000000000000000000000000000000000000000000000000000000815260040160405180910390fd5b6108f281610b10565b50565b6108fe81610a33565b610934576040517f4db0c48300000000000000000000000000000000000000000000000000000000815260040160405180910390fd5b61093d81610aa2565b610973576040517fcce31cc400000000000000000000000000000000000000000000000000000000815260040160405180910390fd5b60006001600083815260200190815260200160002090506002600481111561099e5761099d610ca9565b5b8160030160149054906101000a900460ff1660048111156109c2576109c1610ca9565b5b146109f9576040517fbaf3f0f700000000000000000000000000000000000000000000000000000000815260040160405180910390fd5b60008160030160146101000a81548160ff02191690836004811115610a2157610a20610ca9565b5b02179055503481600101819055505050565b60008073ffffffffffffffffffffffffffffffffffffffff166001600084815260200190815260200160002060030160009054906101000a900473ffffffffffffffffffffffffffffffffffffffff1673ffffffffffffffffffffffffffffffffffffffff1614159050919050565b60003373ffffffffffffffffffffffffffffffffffffffff166001600084815260200190815260200160002060030160009054906101000a900473ffffffffffffffffffffffffffffffffffffffff1673ffffffffffffffffffffffffffffffffffffffff16149050919050565b80600360006101000a81548173ffffffffffffffffffffffffffffffffffffffff021916908373ffffffffffffffffffffffffffffffffffffffff16021790555050565b6040518060a00160405280600081526020016000815260200160008019168152602001600073ffffffffffffffffffffffffffffffffffffffff16815260200160006004811115610ba857610ba7610ca9565b5b81525090565b600080fd5b6000819050919050565b610bc681610bb3565b8114610bd157600080fd5b50565b600081359050610be381610bbd565b92915050565b600060208284031215610bff57610bfe610bae565b5b6000610c0d84828501610bd4565b91505092915050565b600073ffffffffffffffffffffffffffffffffffffffff82169050919050565b6000610c4182610c16565b9050919050565b610c5181610c36565b82525050565b6000602082019050610c6c6000830184610c48565b92915050565b6000819050919050565b610c8581610c72565b82525050565b610c9481610bb3565b82525050565b610ca381610c36565b82525050565b7f4e487b7100000000000000000000000000000000000000000000000000000000600052602160045260246000fd5b60058110610ce957610ce8610ca9565b5b50565b6000819050610cfa82610cd8565b919050565b6000610d0a82610cec565b9050919050565b610d1a81610cff565b82525050565b60a082016000820151610d366000850182610c7c565b506020820151610d496020850182610c7c565b506040820151610d5c6040850182610c8b565b506060820151610d6f6060850182610c9a565b506080820151610d826080850182610d11565b50505050565b600060a082019050610d9d6000830184610d20565b92915050565b610dac81610c72565b8114610db757600080fd5b50565b600081359050610dc981610da3565b92915050565b600060208284031215610de557610de4610bae565b5b6000610df384828501610dba565b91505092915050565b610e0581610bb3565b82525050565b6000602082019050610e206000830184610dfc565b92915050565b610e2f81610c72565b82525050565b6000602082019050610e4a6000830184610e26565b92915050565b60007fffffffffffffffffffffffffffffffff0000000000000000000000000000000082169050919050565b610e8581610e50565b8114610e9057600080fd5b50565b600081359050610ea281610e7c565b92915050565b60008060408385031215610ebf57610ebe610bae565b5b6000610ecd85828601610e93565b9250506020610ede85828601610bd4565b9150509250929050565b610ef181610c36565b8114610efc57600080fd5b50565b600081359050610f0e81610ee8565b92915050565b600060208284031215610f2a57610f29610bae565b5b6000610f3884828501610eff565b91505092915050565b600081905092915050565b50565b6000610f5c600083610f41565b9150610f6782610f4c565b600082019050919050565b6000610f7d82610f4f565b9150819050919050565b600082825260208201905092915050565b7f5472616e73666572206661696c65642100000000000000000000000000000000600082015250565b6000610fce601083610f87565b9150610fd982610f98565b602082019050919050565b60006020820190508181036000830152610ffd81610fc1565b9050919050565b6000819050919050565b61101f61101a82610e50565b611004565b82525050565b60008160601b9050919050565b600061103d82611025565b9050919050565b600061104f82611032565b9050919050565b61106761106282610c36565b611044565b82525050565b6000611079828561100e565b6010820191506110898284611056565b6014820191508190509392505050565b7f4e487b7100000000000000000000000000000000000000000000000000000000600052601160045260246000fd5b60006110d382610c72565b91507fffffffffffffffffffffffffffffffffffffffffffffffffffffffffffffffff820361110557611104611099565b5b60018201905091905056fea264697066735822122021a0f172e7b9c19383ad74ae324cb9c8ba36781aa22ebe9810da52104a318d6964736f6c63430008100033",
  "immutableReferences": {},
  "source": "// SPDX-License-Identifier: MIT\npragma solidity >=0.4.22 <0.9.0;\n\ncontract Marketplace {\n    // course state\n    enum State {\n        Purchased,\n        Activated,\n        Deactivated,\n        Pending,\n        Strike\n    }\n\n    //structure for each course\n    struct Course {\n        //meaning of the 32 byte is for the storage, that each slot takes 32 bytes\n        uint256 id; // 32 byte\n        uint256 price; // 32 byte\n        bytes32 proof; //unic string contructed by the user, will identify the user 32 byte\n        address owner; // user owner of the course 20 byte\n        State state; // 1 byte\n    }\n\n    // mapping of courseID to courseHash\n    mapping(uint256 => bytes32) private ownedCourseHash;\n    // mapping of courseHash to Course data\n    mapping(bytes32 => Course) private ownedCourses;\n\n    // number of all courses + id of courses\n    uint256 private totalOwnedCourses;\n\n    //admin of courses\n    address payable private owner;\n\n    // this runs when the contract is deployed setting the owner of the contract\n    constructor() {\n        setContractOwner(msg.sender);\n    }\n\n    // with three \"/\" we create the error msg\n\n    /// Course has already a Owner!\n    error CourseHasOwner();\n\n    /// Only owner has access!\n    error OnlyOwner();\n\n    ///Course has invalid state!\n    error InvalidState();\n\n    ///Course is does not exist!\n    error CourseIsNotCreated();\n\n    ///Sender is not course owner!\n    error SenderIsNotCourseOwner();\n\n    // a modifier, we can use it in the parameter of the function like we do in transferOwnership()\n    modifier onlyOwner() {\n        if (msg.sender != getContractOwner()) {\n            revert OnlyOwner();\n        }\n        _;\n    }\n\n    function purchaseCourse(bytes16 courseId, bytes32 proof) external payable {\n        //this is creating a hashed string with the course id + msg.sender(account buying the course) and it works as a identifier\n        bytes32 courseHash = keccak256(abi.encodePacked(courseId, msg.sender));\n\n        //this is made to make sure a user buy only one time the course, when user buy we use the courseId + address of user to form a hashed string, if the user trys to buy same course again it will create same hash again\n        if (hasCourseOwnership(courseHash)) {\n            revert CourseHasOwner();\n        }\n\n        uint256 id = totalOwnedCourses++;\n\n        ownedCourseHash[id] = courseHash;\n        //we use the courseHash as key of each element\n        ownedCourses[courseHash] = Course({\n            id: id,\n            price: msg.value,\n            proof: proof,\n            owner: msg.sender,\n            state: State.Purchased\n        });\n    }\n\n    // repurchase same course after deactivating\n    function repurchasedCourse(bytes32 courseHash) external payable {\n        if (!isCourseCreated(courseHash)) {\n            revert CourseIsNotCreated();\n        }\n\n        if (!hasCourseOwnership(courseHash)) {\n            revert SenderIsNotCourseOwner();\n        }\n\n        //how to access courses in storage\n        Course storage course = ownedCourses[courseHash];\n\n        if (course.state != State.Deactivated) {\n            revert InvalidState();\n        }\n\n        course.state = State.Purchased;\n        course.price = msg.value;\n    }\n\n    // activate the course after you buy it\n    function activateCourse(bytes32 courseHash) external onlyOwner {\n        if (!isCourseCreated(courseHash)) {\n            revert CourseIsNotCreated();\n        }\n\n        Course storage course = ownedCourses[courseHash];\n\n        if (course.state != State.Purchased) {\n            revert InvalidState();\n        }\n\n        course.state = State.Activated;\n    }\n\n    // deactivate the course\n    function deactivateCourse(bytes32 courseHash) external onlyOwner {\n        if (!isCourseCreated(courseHash)) {\n            revert CourseIsNotCreated();\n        }\n\n        Course storage course = ownedCourses[courseHash];\n\n        if (course.state != State.Purchased) {\n            revert InvalidState();\n        }\n\n        // return course payed value to the buyer of the course\n        (bool success, ) = course.owner.call{value: course.price}(\"\");\n        require(success, \"Transfer failed!\");\n\n        course.state = State.Pending;\n        course.price = 0;\n    }\n\n    //transfer ownership of contract to other address,only the owner of the contract has that power\n    function transferOwnership(address newOwner) external onlyOwner {\n        setContractOwner(newOwner);\n    }\n\n    //we use this function in manageCoursesHandler\n    function getCourseCount() external view returns (uint256) {\n        return totalOwnedCourses;\n    }\n\n    //we use this function in manageCoursesHandler\n    function getCourseHashAtIndex(uint256 index)\n        external\n        view\n        returns (bytes32)\n    {\n        return ownedCourseHash[index];\n    }\n\n    //this function is used to find all the courses a account own, we use it in ownedCoursesHandler.js && manageCoursesHandler\n    function getCourseByHash(bytes32 courseHash)\n        external\n        view\n        returns (Course memory)\n    {\n        return ownedCourses[courseHash];\n    }\n\n    //return contract owner\n    function getContractOwner() public view returns (address) {\n        return owner;\n    }\n\n    //set contract owner\n    function setContractOwner(address newOwner) private {\n        owner = payable(newOwner);\n    }\n\n    function isCourseCreated(bytes32 courseHash) private view returns (bool) {\n        return\n            ownedCourses[courseHash].owner !=\n            0x0000000000000000000000000000000000000000;\n    }\n\n    //to check if the course is purchased by someone when confronting ownership\n    function hasCourseOwnership(bytes32 courseHash)\n        private\n        view\n        returns (bool)\n    {\n        return ownedCourses[courseHash].owner == msg.sender;\n    }\n}\n",
  "sourcePath": "/Users/didierlanadankan/market-place/contracts/CourseMarketplace.sol",
  "compiler": {
    "name": "solc",
    "version": "0.8.16+commit.07a7930e.Emscripten.clang"
  },
  "schemaVersion": "3.4.9",
  "updatedAt": "2022-09-20T14:35:28.343Z",
  "networkType": "ethereum",
  "devdoc": {
    "kind": "dev",
    "methods": {},
    "version": 1
  },
  "userdoc": {
    "errors": {
      "CourseHasOwner()": [
        {
          "notice": "Course has already a Owner!"
        }
      ],
      "CourseIsNotCreated()": [
        {
          "notice": "Course is does not exist!"
        }
      ],
      "InvalidState()": [
        {
          "notice": "Course has invalid state!"
        }
      ],
      "OnlyOwner()": [
        {
          "notice": "Only owner has access!"
        }
      ],
      "SenderIsNotCourseOwner()": [
        {
          "notice": "Sender is not course owner!"
        }
      ]
    },
    "kind": "user",
    "methods": {},
    "version": 1
  }
}