{
  "contractName": "Marketplace",
  "abi": [
    {
      "inputs": [],
      "stateMutability": "nonpayable",
      "type": "constructor"
    },
    {
      "inputs": [],
      "name": "CourseHasOwner",
      "type": "error"
    },
    {
      "inputs": [],
      "name": "OnlyOwner",
      "type": "error"
    },
    {
      "inputs": [
        {
          "internalType": "bytes16",
          "name": "courseId",
          "type": "bytes16"
        },
        {
          "internalType": "bytes32",
          "name": "proof",
          "type": "bytes32"
        }
      ],
      "name": "purchaseCourse",
      "outputs": [],
      "stateMutability": "payable",
      "type": "function",
      "payable": true
    },
    {
      "inputs": [
        {
          "internalType": "address",
          "name": "newOwner",
          "type": "address"
        }
      ],
      "name": "transferOwnership",
      "outputs": [],
      "stateMutability": "nonpayable",
      "type": "function"
    },
    {
      "inputs": [],
      "name": "getCourseCount",
      "outputs": [
        {
          "internalType": "uint256",
          "name": "",
          "type": "uint256"
        }
      ],
      "stateMutability": "view",
      "type": "function",
      "constant": true
    },
    {
      "inputs": [
        {
          "internalType": "uint256",
          "name": "index",
          "type": "uint256"
        }
      ],
      "name": "getCourseHashAtIndex",
      "outputs": [
        {
          "internalType": "bytes32",
          "name": "",
          "type": "bytes32"
        }
      ],
      "stateMutability": "view",
      "type": "function",
      "constant": true
    },
    {
      "inputs": [
        {
          "internalType": "bytes32",
          "name": "courseHash",
          "type": "bytes32"
        }
      ],
      "name": "getCourseByHash",
      "outputs": [
        {
          "components": [
            {
              "internalType": "uint256",
              "name": "id",
              "type": "uint256"
            },
            {
              "internalType": "uint256",
              "name": "price",
              "type": "uint256"
            },
            {
              "internalType": "bytes32",
              "name": "proof",
              "type": "bytes32"
            },
            {
              "internalType": "address",
              "name": "owner",
              "type": "address"
            },
            {
              "internalType": "enum Marketplace.State",
              "name": "state",
              "type": "uint8"
            }
          ],
          "internalType": "struct Marketplace.Course",
          "name": "",
          "type": "tuple"
        }
      ],
      "stateMutability": "view",
      "type": "function",
      "constant": true
    },
    {
      "inputs": [],
      "name": "getContractOwner",
      "outputs": [
        {
          "internalType": "address",
          "name": "",
          "type": "address"
        }
      ],
      "stateMutability": "view",
      "type": "function",
      "constant": true
    }
  ],
  "bytecode": "0x608060405234801561001057600080fd5b506100203361002560201b60201c565b610069565b80600360006101000a81548173ffffffffffffffffffffffffffffffffffffffff021916908373ffffffffffffffffffffffffffffffffffffffff16021790555050565b610a94806100786000396000f3fe6080604052600436106100555760003560e01c8063442890d51461005a57806362e4e6ac146100855780636d11290b146100c257806396cfda06146100ff578063d76821cb1461012a578063f2fde38b14610146575b600080fd5b34801561006657600080fd5b5061006f61016f565b60405161007c9190610600565b60405180910390f35b34801561009157600080fd5b506100ac60048036038101906100a79190610656565b610199565b6040516100b99190610799565b60405180910390f35b3480156100ce57600080fd5b506100e960048036038101906100e491906107e0565b610275565b6040516100f6919061081c565b60405180910390f35b34801561010b57600080fd5b50610114610291565b6040516101219190610846565b60405180910390f35b610144600480360381019061013f91906108b9565b61029b565b005b34801561015257600080fd5b5061016d60048036038101906101689190610925565b61043b565b005b6000600360009054906101000a900473ffffffffffffffffffffffffffffffffffffffff16905090565b6101a1610565565b600160008381526020019081526020016000206040518060a00160405290816000820154815260200160018201548152602001600282015481526020016003820160009054906101000a900473ffffffffffffffffffffffffffffffffffffffff1673ffffffffffffffffffffffffffffffffffffffff1673ffffffffffffffffffffffffffffffffffffffff1681526020016003820160149054906101000a900460ff166002811115610258576102576106ba565b5b600281111561026a576102696106ba565b5b815250509050919050565b6000806000838152602001908152602001600020549050919050565b6000600254905090565b600082336040516020016102b09291906109bb565b6040516020818303038152906040528051906020012090506102d1816104b3565b15610308576040517fb0fc2d9700000000000000000000000000000000000000000000000000000000815260040160405180910390fd5b60006002600081548092919061031d90610a16565b91905055905081600080838152602001908152602001600020819055506040518060a001604052808281526020013481526020018481526020013373ffffffffffffffffffffffffffffffffffffffff16815260200160006002811115610387576103866106ba565b5b8152506001600084815260200190815260200160002060008201518160000155602082015181600101556040820151816002015560608201518160030160006101000a81548173ffffffffffffffffffffffffffffffffffffffff021916908373ffffffffffffffffffffffffffffffffffffffff16021790555060808201518160030160146101000a81548160ff0219169083600281111561042d5761042c6106ba565b5b021790555090505050505050565b61044361016f565b73ffffffffffffffffffffffffffffffffffffffff163373ffffffffffffffffffffffffffffffffffffffff16146104a7576040517f5fc483c500000000000000000000000000000000000000000000000000000000815260040160405180910390fd5b6104b081610521565b50565b60003373ffffffffffffffffffffffffffffffffffffffff166001600084815260200190815260200160002060030160009054906101000a900473ffffffffffffffffffffffffffffffffffffffff1673ffffffffffffffffffffffffffffffffffffffff16149050919050565b80600360006101000a81548173ffffffffffffffffffffffffffffffffffffffff021916908373ffffffffffffffffffffffffffffffffffffffff16021790555050565b6040518060a00160405280600081526020016000815260200160008019168152602001600073ffffffffffffffffffffffffffffffffffffffff168152602001600060028111156105b9576105b86106ba565b5b81525090565b600073ffffffffffffffffffffffffffffffffffffffff82169050919050565b60006105ea826105bf565b9050919050565b6105fa816105df565b82525050565b600060208201905061061560008301846105f1565b92915050565b600080fd5b6000819050919050565b61063381610620565b811461063e57600080fd5b50565b6000813590506106508161062a565b92915050565b60006020828403121561066c5761066b61061b565b5b600061067a84828501610641565b91505092915050565b6000819050919050565b61069681610683565b82525050565b6106a581610620565b82525050565b6106b4816105df565b82525050565b7f4e487b7100000000000000000000000000000000000000000000000000000000600052602160045260246000fd5b600381106106fa576106f96106ba565b5b50565b600081905061070b826106e9565b919050565b600061071b826106fd565b9050919050565b61072b81610710565b82525050565b60a082016000820151610747600085018261068d565b50602082015161075a602085018261068d565b50604082015161076d604085018261069c565b50606082015161078060608501826106ab565b5060808201516107936080850182610722565b50505050565b600060a0820190506107ae6000830184610731565b92915050565b6107bd81610683565b81146107c857600080fd5b50565b6000813590506107da816107b4565b92915050565b6000602082840312156107f6576107f561061b565b5b6000610804848285016107cb565b91505092915050565b61081681610620565b82525050565b6000602082019050610831600083018461080d565b92915050565b61084081610683565b82525050565b600060208201905061085b6000830184610837565b92915050565b60007fffffffffffffffffffffffffffffffff0000000000000000000000000000000082169050919050565b61089681610861565b81146108a157600080fd5b50565b6000813590506108b38161088d565b92915050565b600080604083850312156108d0576108cf61061b565b5b60006108de858286016108a4565b92505060206108ef85828601610641565b9150509250929050565b610902816105df565b811461090d57600080fd5b50565b60008135905061091f816108f9565b92915050565b60006020828403121561093b5761093a61061b565b5b600061094984828501610910565b91505092915050565b6000819050919050565b61096d61096882610861565b610952565b82525050565b60008160601b9050919050565b600061098b82610973565b9050919050565b600061099d82610980565b9050919050565b6109b56109b0826105df565b610992565b82525050565b60006109c7828561095c565b6010820191506109d782846109a4565b6014820191508190509392505050565b7f4e487b7100000000000000000000000000000000000000000000000000000000600052601160045260246000fd5b6000610a2182610683565b91507fffffffffffffffffffffffffffffffffffffffffffffffffffffffffffffffff8203610a5357610a526109e7565b5b60018201905091905056fea2646970667358221220c77bc3e4d781cf9e48513d2a73794c9d413bdaf0d16a217894f8d90e960a8dc564736f6c63430008100033",
  "immutableReferences": {},
  "source": "// SPDX-License-Identifier: MIT\npragma solidity >=0.4.22 <0.9.0;\n\ncontract Marketplace {\n    enum State {\n        Purchased,\n        Activated,\n        Deactivated\n    }\n\n    //for each course\n    struct Course {\n        //meaning of the 32 byte is for the storage, that each slot takes 32 bytes\n        uint256 id; // 32 byte\n        uint256 price; // 32 byte\n        bytes32 proof; //unic string contructed by the user, will identify the user 32 byte\n        address owner; // user owner of the course 20 byte\n        State state; // 1 byte\n    }\n\n    // mapping of courseID to courseHash\n    mapping(uint256 => bytes32) private ownedCourseHash;\n    // mapping of courseHash to Course data\n    mapping(bytes32 => Course) private ownedCourses;\n\n    // number of all courses + id of courses\n    uint256 private totalOwnedCourses;\n\n    //admin of courses\n    address payable private owner;\n\n    constructor() {\n        setContractOwner(msg.sender);\n    }\n\n    // with three \"/\" we create the error msg\n\n    /// Course has already a Owner!\n    error CourseHasOwner();\n\n    /// Only owner has access!\n    error OnlyOwner();\n\n    modifier onlyOwner() {\n        if (msg.sender != getContractOwner()) {\n            revert OnlyOwner();\n        }\n        _;\n    }\n\n    function purchaseCourse(bytes16 courseId, bytes32 proof) external payable {\n        //this is made to make sure a user buy only one time the course, when user buy we use the courseId + address of user to form a hashed string, if the user trys to buy same course again it will create same hash again\n        bytes32 courseHash = keccak256(abi.encodePacked(courseId, msg.sender));\n\n        if (hasCourseOwnership(courseHash)) {\n            revert CourseHasOwner();\n        }\n\n        uint256 id = totalOwnedCourses++;\n\n        ownedCourseHash[id] = courseHash;\n        ownedCourses[courseHash] = Course({\n            id: id,\n            price: msg.value,\n            proof: proof,\n            owner: msg.sender,\n            state: State.Purchased\n        });\n    }\n\n    function transferOwnership(address newOwner) external onlyOwner {\n        setContractOwner(newOwner);\n    }\n\n    function getCourseCount() external view returns (uint256) {\n        return totalOwnedCourses;\n    }\n\n    function getCourseHashAtIndex(uint256 index)\n        external\n        view\n        returns (bytes32)\n    {\n        return ownedCourseHash[index];\n    }\n\n    function getCourseByHash(bytes32 courseHash)\n        external\n        view\n        returns (Course memory)\n    {\n        return ownedCourses[courseHash];\n    }\n\n    function getContractOwner() public view returns (address) {\n        return owner;\n    }\n\n    function setContractOwner(address newOwner) private {\n        owner = payable(newOwner);\n    }\n\n    function hasCourseOwnership(bytes32 courseHash)\n        private\n        view\n        returns (bool)\n    {\n        return ownedCourses[courseHash].owner == msg.sender;\n    }\n}\n",
  "sourcePath": "/Users/didierlanadankan/market-place/contracts/CourseMarketplace.sol",
  "compiler": {
    "name": "solc",
    "version": "0.8.16+commit.07a7930e.Emscripten.clang"
  },
  "schemaVersion": "3.4.9",
  "updatedAt": "2022-09-14T16:59:50.252Z",
  "networkType": "ethereum",
  "devdoc": {
    "kind": "dev",
    "methods": {},
    "version": 1
  },
  "userdoc": {
    "errors": {
      "CourseHasOwner()": [
        {
          "notice": "Course has already a Owner!"
        }
      ],
      "OnlyOwner()": [
        {
          "notice": "Only owner has access!"
        }
      ]
    },
    "kind": "user",
    "methods": {},
    "version": 1
  }
}